:4000000000800020110000005D1000005D10000008B5044B1A6803F53F5302331A6001F025F800BFFA46004010B5054C237833B9044B13B10448AFF300800123237010BD7F
:400040008081FF1F00000000F0220000084B10B51BB108490848AFF300800848036803B910BD074B002BFBD0BDE81040184700BF000000008481FF1FF0220000C880FF1F6E
:400080000000000008B562B600F014FC00F068FD00F0A8F800F07AFE00F0A2FE00F0C6FD434B18700128F9D100221A7000F00CFC00F0ECFD3F4B93F900303F4A92F90020DB
:4000C00093421BD1B3F1FF3F18D042F2283001F0E5FA00F0DBFD374B93F90020364B93F900309A420AD1FF23324A1370324A137000F0FCFC652001F06BF9CFE700F0ECFDBE
:400100002E4B1870012811D100221A702C4B93F9000000F0C7FC00F037FD00F04FFD284B93F90030274AD35C002BF6D000F008FE0028BDD000F004FEB0F1FF3FB8D000F03D
:40014000FFFDB0F1FF3F19D1692001F041F9012001F07CFB00F032FD164B93F90030194AD35C012BF6D0002001F070FBFF23114A1370114A1370124A137099E700F0E0FD37
:4001800001288BD16E2001F023F90A4C207801F0EFF894F9000000F0B7FC074D2178287800F0EAF9FF2323702B70054A137075E7A881FF1F7C83FF1F7282FF1F7883FF1FBC
:4001C0007D83FF1F3082FF1F30B401F0070502F00703D2085B1B0360A2EBD101416030BC704700BF0122034B1A700022024B1A70704700BF7A83FF1F2C82FF1F08B50020F1
:4002000001F0BEF9002001F0C7F9002001F0D0F9002001F0D9F9002001F0E2F9002001F0EBF9002001F0F4F9002001F0FDF908BD38B5664901F0A6FE01F0F4FF0546002459
:40024000BAE0002D5CDD624B1B78013B032B00F2B280DFE803F002172C41012001F090F9002001F099F9002001F0A2F9002001F0ABF9574A13780133137040F2DC5001F09F
:400280000DFA98E0002001F07BF9012001F084F9002001F08DF9002001F096F94C4A13780133137040F2DC5001F0F8F983E0002001F066F9002001F06FF9012001F078F98D
:4002C000002001F081F9424A13780133137040F2DC5001F0E3F96EE0002001F051F9002001F05AF9002001F063F9012001F06CF940F2DC5001F0D2F90122354B1A705AE008
:40030000334B1B78013B032B55D8DFE803F0412C1702002001F034F9002001F03DF9002001F046F9012001F04FF9294A1378013B137040F2DC5001F0B1F93CE0002001F0C3
:400340001FF9002001F028F9012001F031F9002001F03AF91E4A1378013B137040F2DC5001F09CF927E0002001F00AF9012001F013F9002001F01CF9002001F025F9144A31
:400380001378013B137040F2DC5001F087F912E0012001F0F5F8002001F0FEF8002001F007F9002001F010F90422094B1A7040F2DC5001F073F9013485EAE573A3EBE57360
:4003C0009C42FFF63EAFFFF719FF38BD00005F437A83FF1F38B5664901F0D4FD01F022FF05460024BAE0002D5CDD624B1B78013B032B00F2B280DFE803F002172C4101206F
:4004000001F0EEF8002001F0F7F8002001F000F9002001F009F9574A13780133137040F2DC5001F03BF998E0002001F0D9F8012001F0E2F8002001F0EBF8002001F0F4F82B
:400440004C4A13780133137040F2DC5001F026F983E0002001F0C4F8002001F0CDF8012001F0D6F8002001F0DFF8424A13780133137040F2DC5001F011F96EE0002001F0E2
:40048000AFF8002001F0B8F8002001F0C1F8012001F0CAF840F2DC5001F000F90122354B1A705AE0334B1B78013B032B55D8DFE803F0412C1702002001F092F8002001F0F3
:4004C0009BF8002001F0A4F8012001F0ADF8294A1378013B137040F2DC5001F0DFF83CE0002001F07DF8002001F086F8012001F08FF8002001F098F81E4A1378013B137005
:4005000040F2DC5001F0CAF827E0002001F068F8012001F071F8002001F07AF8002001F083F8144A1378013B137040F2DC5001F0B5F812E0012001F053F8002001F05CF850
:40054000002001F065F8002001F06EF80422094B1A7040F2DC5001F0A1F8013485EAE573A3EBE5739C42FFF63EAFFFF747FE38BD00005F437A83FF1FF0B585B005460C46A4
:400580000246534B197802A8FFF71EFE029801F0A5FCFFF74DFE039801F0A0FCFFF71AFF00F00AFC224629466846FFF70DFE009D002D44DB4FF07C50FFF73AFE019E002EF9
:4005C0001EDB4FF07C573846FFF704FF701E01F085FCFFF7FFFE284601F010FB00223D4B01F0BEF901F070FBFFF722FE3846FFF7F1FE4FF47A7001F03BF800F0E7FB62E090
:400600004FF03F473846FFF7E5FE701C01F066FCFFF7E0FE284601F0F1FA00222D4B01F09FF901F051FBFFF703FE3846FFF7D2FE4FF47A7001F01CF800F0C8FB43E04FF0BF
:400640003F40FFF7F5FD019E002E1EDB4FF07C573846FFF7BFFE701E01F040FCFFF7BAFE284601F0CBFA00221A4B01F07BF901F02BFBFFF7DDFD3846FFF7ACFE4FF47A705F
:4006800000F0F6FF00F0A2FB1DE04FF03F473846FFF7A0FE701C01F021FCFFF79BFE284601F0ACFA00220B4B01F05CF901F00CFBFFF7BEFD3846FFF78DFE4FF47A7000F043
:4006C000D7FF00F083FB024B1C7005B0F0BD00BF2C82FF1F0000E03F10B582B000F076FB0B4C002221786846FFF76EFD009801F0F5FBFFF79DFD019801F0F0FBFFF76AFE7C
:40070000002323704FF4FA7000F0B2FF02B010BD2C82FF1F2DE9F04764380E2800F2A680DFE800F067A4A4A4A4A4A4A40875A4A4A4A4A00000F058FD824600F055FD8146D6
:4007400000F052FD804600F04FFD074600F04CFD064600F049FD054600F046FD044600F043FD00233EE040FA03F1414A01F00101D15403F1080E44FA03F101F0010102F8FD
:400780000E1003F1100E45FA03F101F0010102F80E1003F1180E46FA03F101F0010102F80E1003F1200E47FA03F101F0010102F80E1003F1280E48FA03F101F0010102F8C3
:4007C0000E1003F1300E49FA03F101F0010102F80E1003F1380E4AFA03F101F0010102F80E100133072BBEDD214800F0DBF8BDE8F08700F0F9FC044600F098FD4021204626
:40080000FFF7BAFE732000F0E3FDBDE8F08700F0EBFC054600F0E8FC044600F087FD21462846FFF7A9FE00F0C9F9124B1B5D012BF9D140F6B83000F031FF00F0BFF90D4BAA
:400840001B5D012BEFD1204600F05EF9FF230A4A13700A4A137000F0B1F9732000F0B8FDBDE8F087FFF738FF00F0FAFEBDE8F087EC81FF1F3082FF1F7C83FF1F7282FF1FEE
:4008800008B500F069FE00F021FD09280CD100F0DDFC074B1870A0F16C03DBB2012B01D9642801D1FFF736FF00F050FE08BD00BF7983FF1F08B500F089FC024800F052FEB1
:4008C00008BD00BF8108000008B56C2000F080FD002000F04DFD002000F04AFD002000F047FD002000F044FD022000F041FD062000F03EFD002000F03BFD002000F038FDB1
:4009000008BD00BF08B5104B1B88104AD35C104A92F90020134113F0010F08D0002A06DB282000F00DFF012000F08AFF05E05A2000F006FF012000F083FF054A1378013BC5
:40094000137000F009FF08BD7082FF1FB882FF1F7B83FF1F08B500F03DFF012000F070FF15E00D4B93F90030002B10DA07220A4B1A700A4A138801339BB21380BF2B06D958
:4009800000F0CAFE0023054A1380054A1360044B1B68002BE5D108BD7B83FF1F7082FF1F7482FF1FF8B50122394B1A60002303E0C15C384AD15401333F2BF9DD00F0FEF80E
:4009C00000235FE01A463449C95C01292CD13149C95C01290DD13148C05C814209D103EB43002F4C00252554461C1427A7550230255401290DD12948805C814209D002EB27
:400A00004200274C00252554461CA555023014252554A9BB02EB4202214900208854541C0855023288542BE01A49C95C01290DD11A48C05C814209D103EB4300184C0025DB
:400A40002554461CFF27A7550230255401290DD11248805C814209D002EB4200104C00252554461CA5550230FF25255441B902EB42020B4900208854541C08550232885448
:400A80000133DBB23F2B9DD9FFF764FFF8BD00BF7482FF1FAC81FF1FCC80FF1F3082FF1FB882FF1F70B501220E4B1A60002314E003EB43020C4900248C54551C4C550232D3
:400AC0008C54834207D100EB40028C54551C14264E5502328C540133DBB23F2BE8D9FFF739FF70BD7482FF1FB882FF1F00B591B040220021684601F0F2FB6846FFF752FF5D
:400B000011B05DF804FB00BF38B50122124B1A60002315E003EB4302104900248C54551C4C5502328C54834208D100EB400214248C54551C00244C5502328C540133DBB23E
:400B40003F2BE7D9FFF706FF4FF4FA6000F090FDFFF7CCFF38BD00BF7482FF1FB882FF1F08B5064800F05EFE0722054B1A700022044B1A80FFF7BAFF08BD00BF05090000AF
:400B80007B83FF1F7082FF1F002304E0034AD15C034AD15401333F2BF8DD70473082FF1F7882FF1F08B5012000F070FE012000F05FFD002000F06AFE08BD00BF10B5FFF7A4
:400BC000F1FF00242DE000F059FE01280CD14FF4FA6000F063FD00F051FE012812D100F04DFE114B18550DE000F048FE50B94FF4FA6000F053FD00F041FE18B900F03EFE16
:400C0000094B18553E2C0BDC012000F02BFE012000F044FD002000F025FE012000F03EFD01343F2CCFDD10BD3082FF1F38B5FFF7ABFFFFF7C3FF002419E0114B1B5D012B4C
:400C400014D1104B1B5D8BB940F6B83000F026FDFFF7B4FF0A4B1D5D012D07D1094B1B5D23B9FFF791FF084B1C7006E001343F2CE3DDFF22044B1A700025284638BD00BF35
:400C80007882FF1F3082FF1F7282FF1F10B5FFF795FF002416E00D4B1B5D93B90C4B1B5D012B0ED140F6B83000F0F8FCFFF786FF064B1B5D2BB9064B1B5D012B01D1054B9A
:400CC0001C7001343F2CE6DD10BD00BF7882FF1F3082FF1F7C83FF1F10B5FFF76FFF002420E0124B1B5D012B1BD1114B1B5DC3B9104B1B5D012B14D10F4B93F900309C4212
:400D00000FD040F6B83000F0C9FCFFF757FF074B185D012805D1064B1B5D13B9074B1C7010BD01343F2CDCDD002010BD7882FF1F3082FF1FEC81FF1F7282FF1F7D83FF1FC6
:400D400008B5FFF73BFF002310E00D4A92F900200C498A5C012A03D10B49C95C012909D01AB9094AD25C012A06D001333F2BECDD002008BD012008BD4FF0FF3008BD00BF42
:400D80007C83FF1FEC81FF1F3082FF1F08B5FFF709FFFFF713FFFFF7F7FEFF23034A1370034A1370034A137008BD00BF7C83FF1F7282FF1F7D83FF1F08B540F2DC5000F09F
:400DC00085FD4FF4FA7000F053FC08BD08B54FF42F7000F07BFD4FF4FA7000F049FC08BD08B500F09BFDFFF7F1FF08BDFEE700BFF0B40022174611E050F82760F3B226F0E0
:400E0000FF0608E001EB420511F812406D78A5550132013BDBB2002BF4D101371C2FEBD9F0BC7047064B1B78DBB203F00701054A11701B09013213704422034B1A707047B7
:400E4000CF0100496E5800407658004038B500242A4B1C80582202331A70452202331A801823274A137040F28E3102321180023213700222234B1A7008224FF040231A70A6
:400E8000032203F500731A701F4B1B78DBB21F4A137040F246221E4B1A8042F25122023B1A8019250CE01B4B1B7803F0010343EA440404F003044FF4F07000F03DFD013DF2
:400EC0000DB1032CEFD115B90320FFF78FFF124B4FF480721A8007221A7000220F490A704820023108701A700222033B1A700C4A137843F00703137038BD00BF804000401F
:400F0000864000400043004008010049A146004022420040254200400440004006400040A243004008B50A46002101F0D8F908BD08B501F0C9F908BD38B572B66122354B33
:400F40001A70FFF783FF344A137843F00403137000240CE0314D630019194A0011462A44084691882858FFF7DDFF0134E4B2072CF0D900240BE02949A300181942008818C0
:400F80008022416B006BFFF7D3FF0134E4B2002CF1D023494FF09040FFF72AFF214A137843F0020313701032137843F0020313701D4C237843F040032370A2F58632513A3E
:400FC000137843F010031370082218491848FFF7AFFF0A2217491848FFF7AAFF082217491748FFF7A5FF082216491748FFF7A0FF082216491648FFF79BFF164A137843F0EE
:4010000008031370FFF70EFF0E2221461248FFF78FFF38BD00480040E8460040F42200007400004803500140A0430040800500480251004088050048C051004094050048CF
:40104000125100409C05004822510040A40500483251004022430040B043004008B501F007F903680C2B00D1FEE7FEE708B5104E104D16E029686B68AC68002204E051F885
:40108000040B43F8040B0432A242F8D1E868002203E0002143F8041B04328242F9D11035013E002EE6D101F0E9F8FEF7EBFFFEE7010000005423000008B5104A104B1A60FD
:4010C000104A136843F40073136000230AE0032B03D80D4A52F8231000E00C490C4A42F8231001332F2BF2D90A4B1A780A4B1A70074A0A4B1A60FFF71FFF08BD0004FA0501
:401100000CED00E014ED00E0000000005D1000000080FF1FBC760040C080FF1F08ED00E008B51149002000F0C3FA0721002000F0D3FA00220D4B1A7072220D4B1A702022A0
:40114000013B1A700B49012000F0B2FA0721012000F0C2FA0622084B1A70472210331A70022251331A7008BD411400009C81FF1F8A650040D91400002A64004010B500F042
:40118000E3FB04460D4A137843F020031370013A137843F010031370094A0123136009490B7843F010030B70022307490B60136000F046FA204600F0CBFB10BD9A65004092
:4011C00000E100E09B64004080E200E008B5054B5B7823B9FFF7A4FF0122024B5A70FFF7CDFF08BD9C81FF1F0122134B1A60134A9378DBB2D178C9B2127912F0FF0F01D13B
:401200008B4211D00E4AD05CC0B20133DBB2082B00D90023094A9370137913F0FF0F06D00022064B1A7102E0064B1878C0B20122054B1A60704700BF80E100E09C81FF1F3F
:401240008C83FF1F4965004000E100E00122194B1A60194A9378DBB2D178C9B2127912F0FF0F01D18B4211D0144AD05CC0B20133DBB2082B00D900230F4A9370137913F0E0
:40128000FF0F13D000220C4B1A710FE00C4B1B78DBB213F0200F06D00A4A1078C0B213F01E0F02D102E0002000E000200122064B1A60704780E100E09C81FF1F8C83FF1F2A
:4012C000696500404965004000E100E00122144B1A60144B9A78D2B2DB78DBB29A4206D1104B1B7913F0FF0F15D0092014E00D4B9A78D2B2DB78DBB29A4205D2094AD3788C
:401300009078181AC0B207E0064AD3789078181A0930C0B200E000200122034B1A60704780E100E09C81FF1F00E100E008B500F00BFB0B4B1A7842F001021A701A7802F0DD
:40134000FE021A7000F004FB0121064B1960064B00229A70DA701A715A71044B196008BD9965004080E100E09C81FF1F00E100E0114B5B78F3B10222104B1A600E4A9379B3
:40138000DBB2D279934207D10D4B1B7813F0040F02D10C4B18700AE0082A02D90022064BDA71054AD3790849C8540133D3710222064B1A60704700BF9C81FF1F80E100E0DF
:4013C0006B6400404B6400408083FF1F00E100E0164BD9799B79DBB2994205D25A1E914214BF0022012204E0CA1A082A14BF00220122002AECD1994207D10D4B1B7813F00A
:40140000040F02D10B4B18707047082900D90021094B58540131054BD971054B1B7813F0020F02D00222054B1A6070479C81FF1F6B6400404B6400408083FF1F00E200E0B0
:401440001D4B1B78DBB213F01E0F05D01B4803F01E0201780A43027003F0200303F0FF0233B3174B1978C9B2164B1B78DBB21648C154164B1B7813F0FF0F02D00121144B87
:40148000197010490B780133DBB20B700B78DBB2082B02D900210B4B19700A4B1978C9B20C4B1B78DBB2994202D10121074B1970002AC5D1704700BF696500409C81FF1F6B
:4014C000496500409F81FF1F8C83FF1FA081FF1FA181FF1F9E81FF1F13E0104B1B78DBB2082B02D900220D4B1A700C4A1378DBB20B49CB5CDBB20B490B7013780133DBB2C6
:401500001370064B1B78DBB2074A1278934204D0064B1B7813F0040FDFD07047A281FF1F8083FF1F4B640040A381FF1F6B640040014B1B68D864704708ED00E04001C0B2E7
:40154000014B1870704700BF03E400E00822014B1A60704700E100E00822014B1A60704780E100E010B50446FFF7F6FF2046FFF7DFFF0720FFF7E2FFFFF7E8FF10BD00BF6F
:40158000044A137803F0F703C00000F0080018431070704720510040044A137803F0EF03000100F0100018431070704720510040044A137803F0DF03400100F0200018430E
:4015C0001070704720510040044A137803F0BF03800100F0400018431070704720510040044A137803F0F703C00000F0080018431070704730510040044A137803F0EF03F2
:40160000000100F0100018431070704730510040044A137803F0DF03400100F0200018431070704730510040044A137803F0BF03800100F040001843107070473051004072
:40164000054A137843F0040313701032137843F004031370704700BFA243004001BE7047024A137843F0010313707047F646004010B5044605E0084B186800F05DF9A4F5CE
:401680000044B4F5004FF6D8034B586800FB04F000F052F910BD00BF0C81FF1F08B5034B1B7A00FB03F000F047F908BD0C81FF1F70B504460E46074B1D681F2802D90020A7
:4016C000FFF7CCFF04F01F04103455F8240045F8246070BD08ED00E038B504460D46072902D90020FFF7BAFF1F2C02D90020FFF7B5FF04F01F0000F1604000F564406D019B
:40170000EDB2057038BD00BF024A137843F080031370704779640040024A137803F07F031370704779640040014B1870704700BF08640040014B1870704700BF486400402E
:40174000014B1870704700BF28640040014B1870704700BF88640040014B1878704700BF68640040014B1878704700BF5864004008B501E0FFF7F6FFFFF7EEFF10F0100FA6
:40178000F8D108BD10B5114A137803F0C00343F00B0313700E4C237843F0010323707620FFF7C2FF7620FFF7C5FF7620FFF7C8FF0420FFF7CBFF00F0C7F8237843F0100353
:4017C000237000F0C5F8FFF7D3FF10BD796400409864004008B5054B1B7823B9FFF7D2FF0122024B1A70FFF78FFF08BDA581FF1F014B1B689864704708ED00E04001C0B2E7
:40180000014B1870704700BF02E400E00422014B1A60704700E100E00422014B1A60704780E100E010B50446FFF7F6FF2046FFF7DFFF0620FFF7E2FFFFF7E8FF10BD00BFB6
:40184000014B1870704700BF78640040044A137803F0FD03400000F0020018431070704720510040044A137803F0DF03400100F0200018431070704700510040024B1878C2
:40188000C0F38010704700BF01510040044A137803F07F03C001C0B218431070704700BF00510040024A137843F08003137070477B650040014B1880704700BF146A00407B
:4018C000014B1880704700BF946A0040014B1880704700BF546A004008B50F4A137803F0C00343F0090313701F32137843F0010313700132137843F00103137044F61F6018
:40190000FFF7D8FF44F61F60FFF7DAFF40F2DC50FFF7DCFF08BD00BF7B65004008B5054B1B7823B9FFF7D8FF0122024B1A70FFF7B9FF08BDA681FF1F0230800803D000BF38
:4019400001380046FCD17047EFF3108072B6704780F31088704700BF81F0004102E000BF83F0004330B54FEA41044FEA430594EA050F08BF90EA020F1FBF54EA000C55EA5A
:40198000020C7FEA645C7FEA655C00F0E2804FEA5454D4EB5555B8BF6D420CDD2C4480EA020281EA030382EA000083EA010180EA020281EA0303362D88BF30BD11F0004F2B
:4019C0004FEA01314FF4801C4CEA113102D0404261EB410113F0004F4FEA03334CEA133302D0524263EB430394EA050F00F0A780A4F10104D5F1200E0DDB02FA0EFC22FACB
:401A000005F2801841F1000103FA0EF2801843FA05F359410EE0A5F120050EF1200E012A03FA0EFC28BF4CF0020C43FA05F3C01851EBE37101F0004507D54FF0000EDCF17E
:401A4000000C7EEB00006EEB0101B1F5801F1BD3B1F5001F0CD349085FEA30004FEA3C0C04F101044FEA445212F5800F80F09A80BCF1004F08BF5FEA500C50F1000041EBB6
:401A8000045141EA050130BD5FEA4C0C404141EB010111F4801FA4F10104E9D191F0000F04BF01460020B1FA81F308BF2033A3F10B03B3F120020CDA0C3208DD02F1140CF4
:401AC000C2F10C0201FA0CF021FA02F10CE002F11402D8BFC2F1200C01FA02F120FA0CFCDCBF41EA0C019040E41AA2BF01EB0451294330BD6FEA04041F3C1CDA0C340EDC2D
:401B000004F11404C4F1200220FA04F001FA02F340EA030021FA04F345EA030130BDC4F10C04C4F1200220FA02F001FA04F340EA0300294630BD21FA04F0294630BD94F052
:401B4000000F83F4801306BF81F480110134013D4EE77FEA645C18BF7FEA655C29D094EA050F08BF90EA020F05D054EA000C04BF1946104630BD91EA030F1EBF00210020A3
:401B800030BD5FEA545C05D14000494128BF41F0004130BD14F580043CBF01F5801130BD01F0004545F0FE4141F470014FF0000030BD7FEA645C1ABF194610467FEA655C00
:401BC0001CBF0B46024650EA013406BF52EA033591EA030F41F4002130BD00BF90F0000F04BF0021704730B54FF4806404F132044FF000054FF0000150E700BF90F0000FD0
:401C000004BF0021704730B54FF4806404F1320410F0004548BF40424FF000013EE700BF42004FEAE2014FEA31014FEA02701FBF12F07F4393F07F4F81F06051704792F01E
:401C4000000F14BF93F07F4F704730B54FF4607401F0004521F0004120E700BF50EA010208BF704730B54FF000050AE050EA010208BF704730B511F0004502D5404261EBD7
:401C800041014FF4806404F132045FEA915C3FF4DCAE4FF003025FEADC0C18BF03325FEADC0C18BF033202EBDC02C2F1200300FA03FC20FA02F001FA03FE40EA0E0021FAEA
:401CC00002F11444C1E600BF4FEA4102B2F1E04324BFB3F5001CDCF1FE5C0DD901F0004C4FEAC0024CEA5070B2F1004F40EB830008BF20F00100704711F0804F21D113F11A
:401D00003872BCBF01F00040704741F480114FEA5252C2F11802C2F1200C10FA0CF320FA02F018BF40F001004FEAC1234FEAD32303FA0CFC40EA0C0023FA02F34FEA430312
:401D4000CCE77FEA625307D150EA01331EBF4FF0FE4040F44000704701F0004040F0FE4040F40000704700BF80F0004002E000BF81F0004142001FBF5FEA410392EA030F40
:401D80007FEA226C7FEA236C6AD04FEA1262D2EB1363C1BFD218414048404140B8BF5B42192B88BF704710F0004F40F4000020F07F4018BF404211F0004F41F4000121F08E
:401DC0007F4118BF494292EA030F3FD0A2F1010241FA03FC10EB0C00C3F1200301FA03F100F0004302D5494260EB4000B0F5000F13D3B0F1807F06D340084FEA310102F1AE
:401E00000102FE2A51D2B1F1004F40EBC25008BF20F0010040EA03007047490040EB000010F4000FA2F10102EDD1B0FA80FCACF1080CB2EB0C0200FA0CF0AABF00EBC250B1
:401E400052421843BCBFD0401843704792F0000F81F4000106BF80F400000132013BB5E74FEA41037FEA226C18BF7FEA236C21D092EA030F04D092F0000F08BF0846704798
:401E800090EA010F1CBF0020704712F07F4F04D1400028BF40F00040704712F100723CBF00F50000704700F0004343F0FE4040F4000070477FEA226216BF08467FEA236349
:401EC0000146420206BF5FEA412390EA010F40F4800070474FF0000304E000BF10F0004348BF40425FEA000C08BF704743F0964301464FF000001CE050EA010208BF704723
:401F00004FF000030AE000BF50EA010208BF704711F0004302D5404261EB41015FEA010C02BF84460146002043F0B64308BFA3F18053A3F50003BCFA8CF2083AA3EBC2537A
:401F400010DB01FA02FC634400FA02FCC2F12002BCF1004F20FA02F243EB020008BF20F00100704702F1200201FA02FCC2F1200250EA4C0021FA02F243EB020008BF20EAC7
:401F8000DC7070474FF0FF0C1CEAD0521EBF1CEAD15392EA0C0F93EA0C0F6FD01A4480EA010C400218BF5FEA41211ED04FF0006343EA501043EA5111A0FB01310CF00040E9
:401FC000B1F5000F3EBF490041EAD3715B0040EA010062F17F02FD2A1DD8B3F1004F40EBC25008BF20F00100704790F0000F0CF0004C08BF49024CEA502040EA51207F3A5F
:40200000C2BFD2F1FF0340EAC250704740F400004FF00003013A5DDC12F1190FDCBF00F000407047C2F10002410021FA02F1C2F1200200FA02FC5FEA310040F1000053EA17
:402040004C0308BF20EADC70704792F0000F00F0004C02BF400010F4000F013AF9D040EA0C0093F0000F01F0004C02BF490011F4000F013BF9D041EA0C018FE70CEAD15368
:4020800092EA0C0F18BF93EA0C0F0AD030F0004C18BF31F0004CD8D180EA010000F00040704790F0000F17BF90F0004F084691F0000F91F0004F14D092EA0C0F01D1420222
:4020C0000FD193EA0C0F03D14B0218BF084608D180EA010000F0004040F0FE4040F40000704740F0FE4040F4400070474FF0FF0C1CEAD0521EBF1CEAD15392EA0C0F93EA2F
:402100000C0F69D0A2EB030280EA010C49024FEA402037D04FF0805343EA111143EA10130CF000408B4238BF5B0042F17D024FF4000C8B4224BF5B1A40EA0C00B3EB510FF1
:4021400024BFA3EB510340EA5C00B3EB910F24BFA3EB910340EA9C00B3EBD10F24BFA3EBD10340EADC001B0118BF5FEA1C1CE0D1FD2A3FF650AF8B4240EBC25008BF20F0E1
:40218000010070470CF0004C4CEA50207F32C2BFD2F1FF0340EAC250704740F400004FF00003013A37E792F0000F00F0004C02BF400010F4000F013AF9D040EA0C0093F022
:4021C000000F01F0004C02BF490011F4000F013BF9D041EA0C0195E70CEAD15392EA0C0F08D142027FF47DAF93EA0C0F7FF470AF084676E793EA0C0F04D14B023FF44CAF92
:4022000008466EE730F0004C18BF31F0004CCAD130F000427FF45CAF31F000437FF43CAF5FE700BF4FEA4002B2F1FE4F0FD34FF09E03B3EB12620DD94FEA002343F0004312
:4022400010F0004F23FA02F018BF404270474FF00000704712F1610F01D1420205D110F0004008BF6FF0004070474FF000007047014B1868704700BF7C81FF1F0E4B70B56D
:402280001E460E4C0025E41AA410A54204D056F8253098470135F8E700F04AF8084B094C1E46E41AA4100025A54204D056F8253098470135F8E770BD3C2300003C230000E5
:4022C0003C2300004423000010B5431E0A44914204D011F8014B03F8014FF8E710BD03460244934202D003F8011BFAE77047000000000000405100403000F051004010003A
:4023000000000140001000140140800400190140000300400140000A004C01400002005001402000801801400005004880004300F8B500BFF8BC08BC9E4670474D00000096
:40234000B9100000F8B500BFF8BC08BC9E4670472900000068230000C880FF1FB800000018020000000000000000000000010001000100010100010001000100000100011F
:4023800000010001010001000100010000010001000100010100010001000100000100010001000101000100010001000000B8887011010046000000801D2C040000000032
:4023C000000000000000000000000000000000000000000000000000000000002E23000000000000000000000000000000000000000000000000000000000000000000008C
:40240000000000000000000000000000000000000000000000000000000000001C81FF1F0000000000000000000000000000000000000000000000000000000000000000E1
:40244000000000000000000000000000000000000000000000000000000000000000000000000000000000000000000000000000000000000000000000000000000000005C
:40248000000000000000000000000000000000000000000000000000000000000000000000000000000000000000000000000000000000000000000000000000000000001C
:4024C00000000000000000000000000000000000000000000000000000000000000000000000000000000000000000000000000000000000000000000000000000000000DC
:40250000000000000000000000000000000000000000000000000000000000000000000000000000000000000000000000000000000000000000000000000000000000009B
:020000040003F7
:0200000480007A
:4000000003520040026400400265004001050140010701404D0801403E0901405E0A01403B0B014001150140011701400D18014036190140601A0140401B0140054001407D
:40004000044101400542014004430140024401400145014001460140024701400448014005490140044C0140054D01400850014001510140098018011901880D8B0F8938B2
:400080008A72E208E6020108020305080B020C011201140215011B011E021F01230A270129012F04310133083502360337043F114010410645D046204710483A49FF4AFF0C
:4000C0004BFF4DA04F0450185201530154055614580459045A045B045F01604062C06440654066C068C06AC06CC06EC0840C8503880C8902900892049503960198049A081F
:400100009F01A002A401A801B003B103B40CB802B902BF01D280D804D904DB04DC02DF0101140680070108010A080B200D800E400F2010801208130419011A081D801F80FF
:400140002101244027292E402F9430803288330436A03704380839203B2C3E083F2245804D014F20560857115D015E805F0867406E407280874090089120944095029B04D3
:400180009D01A080A220B410C096C2BEC40ECAF0CC7ACEE6D010D220D6D0D88002060603090C0A050B03130C15011602170619011B0E1F032201240626012B083407350F97
:4001C0003A203B204004464049FF4A074BFF4C404D204EF04F055008580459045A045C225D025F01604061A862406320801282208418850A862287048C0192069308942092
:400200009503970C99039B049F05A028A110A420A503A618A704A838AA04B03EB310B401B50FB63EBB20BE10BF04C031C106C5ECC60BC807C9FFCAFFCBFFCEF0CF44D00C2D
:40024000D401D604D804D904DA04DB04DC22DD22DF01E6C0EA40EB0201020324048805010B200C040E801080130815201680170418081B201E881F80200821102308242041
:40028000270428042A102FA0308031813324350336A0372439203C0841014580470448804A804C444D014E205210531056805C405D015E085F2067808740C0BEC234C47C13
:4002C000CAC4CCFFCE44D051D220D6F0D880EE02EA01010105011C0128012C01300131015608580459045B045D905F0100400124081109080A080B020F0211101260160876
:400300001780180119291E802189230427802A4031583280386039023B083E083F024005410849505010530459015E4061806344640188128E40920895149A089C01A30122
:40034000A640AB20C007C28FC4CECA08CC0ECECFD00ED20CD611D81D004F029005010640080309080C4C0D1E0EA31001110114FF151E18041B041CF31D101E0C2008210170
:40038000251826B3280C29062B182C422D1A2F04307C3302340F3501368C371C3AA23F044010410349FF4AFF4BFF4DA04F04501856025712580459045A045B045C225D21C1
:4003C0005F01604062C06440654066C068C06AC06CC06EC08701A301AE01B601B701C010C103C501C620C809C9FFCAFFCBFFCDAFCE0FCF04D018D280D804D904DA04DB042E
:40040000DC11DD11DF01E040E2C0E440E540E6C0E8C0EAC0ECC0EEC0004001280240080209080A040B021001122013221780184019901D801F40200422A4254029962A403F
:400440002F403080310832203301386039043F0441804220458046204F0456205A0869146B0170907104720473227780811083018552944495149702980399289D109E40C0
:40048000A108A6A0AF40C00FC20FC48FCA8FCC0FCE4ED05AD602E0023010330834023580CCF09C109D80A708AC1285809C109D80A708E21087089C10A708E6407101DC0111
:4004C0009D019D01B501EC029B209C10AB20EA805F209B20AC10D620EE4061028F08D802E602130885029F08A502C408000502140C051007110112141C071D0100FF000033
:40050000000000040700000419004601000018021400A100180200000A0281001800000100001800000018000700000000000002180220000704C0010002000800004050E4
:40054000620305000100C00E18FFFFFF62A0F0410C0000001800040004040404222200010000000000004002001030100010101200000000000000000000000000000000B9
:4005800040A0A00000000000800040808000800000000000008B8B0080000000007A7A0000000000007B7B00010000000000000000000000000000000000000000000000FA
:4005C00000000000000000000000000000000000000000000000000000000000000000000000000000000000000000000000000000000000000000000000000000000000FB
:4006000000000000000000000000000000000000000000000000000000000000000000000000000000000000000000000000000000000000000000000000000000000000BA
:40064000000000000000000000000000000000000000000000000000000000000000000000000000000000000000000000000000000000000000000000000000000000007A
:40068000000000000000000000000000000000000000000000000000000000000000000000000000000000000000000000000000000000000000000000000000000000003A
:0200000490006A
:0400000000004005B7
:0200000490105A
:04000000BC90ACAF55
:0200000490303A
:02000000B2F656
:0200000490402A
:4000000000000000000000000000000000000000000000000000000000000000000000000000000000000000000000000000000000000000000000000000000000000000C0
:400040000000000000000000000000000000000000000000000000000000000000000000000000000000000000000000000000000000000000000000000000000000000080
:400080000000000000000000000000000000000000000000000000000000000000000000000000000000000000000000000000000000000000000000000000000000000040
:4000C0000000000000000000000000000000000000000000000000000000000000000000000000000000000000000000000000000000000000000000000000000000000000
:0200000490501A
:0C00000000012E16106900012E25C35FC0
:00000001FF